{
  "_format": "hh-sol-artifact-1",
  "contractName": "GOAT",
  "sourceName": "contracts/GOAT.sol",
  "abi": [
    {
      "inputs": [],
      "stateMutability": "nonpayable",
      "type": "constructor"
    },
    {
      "inputs": [],
      "name": "ApprovalCallerNotOwnerNorApproved",
      "type": "error"
    },
    {
      "inputs": [],
      "name": "ApprovalQueryForNonexistentToken",
      "type": "error"
    },
    {
      "inputs": [],
      "name": "BalanceQueryForZeroAddress",
      "type": "error"
    },
    {
      "inputs": [],
      "name": "MintERC2309QuantityExceedsLimit",
      "type": "error"
    },
    {
      "inputs": [],
      "name": "MintToZeroAddress",
      "type": "error"
    },
    {
      "inputs": [],
      "name": "MintZeroQuantity",
      "type": "error"
    },
    {
      "inputs": [],
      "name": "OwnerQueryForNonexistentToken",
      "type": "error"
    },
    {
      "inputs": [],
      "name": "OwnershipNotInitializedForExtraData",
      "type": "error"
    },
    {
      "inputs": [],
      "name": "SetUserCallerNotOwnerNorApproved",
      "type": "error"
    },
    {
      "inputs": [],
      "name": "TransferCallerNotOwnerNorApproved",
      "type": "error"
    },
    {
      "inputs": [],
      "name": "TransferFromIncorrectOwner",
      "type": "error"
    },
    {
      "inputs": [],
      "name": "TransferToNonERC721ReceiverImplementer",
      "type": "error"
    },
    {
      "inputs": [],
      "name": "TransferToZeroAddress",
      "type": "error"
    },
    {
      "inputs": [],
      "name": "URIQueryForNonexistentToken",
      "type": "error"
    },
    {
      "anonymous": false,
      "inputs": [
        {
          "indexed": true,
          "internalType": "address",
          "name": "owner",
          "type": "address"
        },
        {
          "indexed": true,
          "internalType": "address",
          "name": "approved",
          "type": "address"
        },
        {
          "indexed": true,
          "internalType": "uint256",
          "name": "tokenId",
          "type": "uint256"
        }
      ],
      "name": "Approval",
      "type": "event"
    },
    {
      "anonymous": false,
      "inputs": [
        {
          "indexed": true,
          "internalType": "address",
          "name": "owner",
          "type": "address"
        },
        {
          "indexed": true,
          "internalType": "address",
          "name": "operator",
          "type": "address"
        },
        {
          "indexed": false,
          "internalType": "bool",
          "name": "approved",
          "type": "bool"
        }
      ],
      "name": "ApprovalForAll",
      "type": "event"
    },
    {
      "anonymous": false,
      "inputs": [
        {
          "indexed": true,
          "internalType": "uint256",
          "name": "fromTokenId",
          "type": "uint256"
        },
        {
          "indexed": false,
          "internalType": "uint256",
          "name": "toTokenId",
          "type": "uint256"
        },
        {
          "indexed": true,
          "internalType": "address",
          "name": "from",
          "type": "address"
        },
        {
          "indexed": true,
          "internalType": "address",
          "name": "to",
          "type": "address"
        }
      ],
      "name": "ConsecutiveTransfer",
      "type": "event"
    },
    {
      "anonymous": false,
      "inputs": [
        {
          "indexed": false,
          "internalType": "bool",
          "name": "locked",
          "type": "bool"
        }
      ],
      "name": "DefaultLocked",
      "type": "event"
    },
    {
      "anonymous": false,
      "inputs": [
        {
          "indexed": true,
          "internalType": "address",
          "name": "to",
          "type": "address"
        },
        {
          "indexed": false,
          "internalType": "uint256[]",
          "name": "tokenIds",
          "type": "uint256[]"
        },
        {
          "components": [
            {
              "internalType": "address",
              "name": "oracle",
              "type": "address"
            },
            {
              "internalType": "enum IGOAT.OracleProvider",
              "name": "providerId",
              "type": "uint8"
            }
          ],
          "indexed": false,
          "internalType": "struct IGOAT.OracleId[]",
          "name": "oracles",
          "type": "tuple[]"
        }
      ],
      "name": "GOATsMinted",
      "type": "event"
    },
    {
      "anonymous": false,
      "inputs": [
        {
          "indexed": true,
          "internalType": "uint256",
          "name": "tokenId",
          "type": "uint256"
        },
        {
          "indexed": false,
          "internalType": "bool",
          "name": "locked",
          "type": "bool"
        }
      ],
      "name": "Locked",
      "type": "event"
    },
    {
      "anonymous": false,
      "inputs": [
        {
          "indexed": false,
          "internalType": "address[]",
          "name": "oracles",
          "type": "address[]"
        },
        {
          "indexed": true,
          "internalType": "enum IGOAT.OracleProvider",
          "name": "providerId",
          "type": "uint8"
        }
      ],
      "name": "OraclesAdded",
      "type": "event"
    },
    {
      "anonymous": false,
      "inputs": [
        {
          "indexed": true,
          "internalType": "address",
          "name": "previousOwner",
          "type": "address"
        },
        {
          "indexed": true,
          "internalType": "address",
          "name": "newOwner",
          "type": "address"
        }
      ],
      "name": "OwnershipTransferred",
      "type": "event"
    },
    {
      "anonymous": false,
      "inputs": [
        {
          "indexed": true,
          "internalType": "address",
          "name": "from",
          "type": "address"
        },
        {
          "indexed": true,
          "internalType": "address",
          "name": "to",
          "type": "address"
        },
        {
          "indexed": true,
          "internalType": "uint256",
          "name": "tokenId",
          "type": "uint256"
        }
      ],
      "name": "Transfer",
      "type": "event"
    },
    {
      "anonymous": false,
      "inputs": [
        {
          "indexed": true,
          "internalType": "uint256",
          "name": "tokenId",
          "type": "uint256"
        },
        {
          "indexed": true,
          "internalType": "address",
          "name": "user",
          "type": "address"
        },
        {
          "indexed": false,
          "internalType": "uint64",
          "name": "expires",
          "type": "uint64"
        }
      ],
      "name": "UpdateUser",
      "type": "event"
    },
    {
      "inputs": [],
      "name": "PRICE_PER_TOKEN",
      "outputs": [
        {
          "internalType": "uint256",
          "name": "",
          "type": "uint256"
        }
      ],
      "stateMutability": "view",
      "type": "function"
    },
    {
      "inputs": [
        {
          "internalType": "enum IGOAT.OracleProvider",
          "name": "providerId",
          "type": "uint8"
        },
        {
          "internalType": "address[]",
          "name": "oracles",
          "type": "address[]"
        }
      ],
      "name": "addOracles",
      "outputs": [],
      "stateMutability": "nonpayable",
      "type": "function"
    },
    {
      "inputs": [
        {
          "internalType": "address",
          "name": "to",
          "type": "address"
        },
        {
          "internalType": "uint256",
          "name": "tokenId",
          "type": "uint256"
        }
      ],
      "name": "approve",
      "outputs": [],
      "stateMutability": "payable",
      "type": "function"
    },
    {
      "inputs": [
        {
          "internalType": "address",
          "name": "owner",
          "type": "address"
        }
      ],
      "name": "balanceOf",
      "outputs": [
        {
          "internalType": "uint256",
          "name": "",
          "type": "uint256"
        }
      ],
      "stateMutability": "view",
      "type": "function"
    },
    {
      "inputs": [],
      "name": "decimals",
      "outputs": [
        {
          "internalType": "uint8",
          "name": "",
          "type": "uint8"
        }
      ],
      "stateMutability": "pure",
      "type": "function"
    },
    {
      "inputs": [],
      "name": "defaultLocked",
      "outputs": [
        {
          "internalType": "bool",
          "name": "",
          "type": "bool"
        }
      ],
      "stateMutability": "view",
      "type": "function"
    },
    {
      "inputs": [
        {
          "internalType": "uint256",
          "name": "tokenId",
          "type": "uint256"
        }
      ],
      "name": "getApproved",
      "outputs": [
        {
          "internalType": "address",
          "name": "",
          "type": "address"
        }
      ],
      "stateMutability": "view",
      "type": "function"
    },
    {
      "inputs": [
        {
          "internalType": "address",
          "name": "owner",
          "type": "address"
        },
        {
          "internalType": "address",
          "name": "operator",
          "type": "address"
        }
      ],
      "name": "isApprovedForAll",
      "outputs": [
        {
          "internalType": "bool",
          "name": "",
          "type": "bool"
        }
      ],
      "stateMutability": "view",
      "type": "function"
    },
    {
      "inputs": [
        {
          "internalType": "uint256",
          "name": "tokenId",
          "type": "uint256"
        }
      ],
      "name": "locked",
      "outputs": [
        {
          "internalType": "bool",
          "name": "",
          "type": "bool"
        }
      ],
      "stateMutability": "view",
      "type": "function"
    },
    {
      "inputs": [
        {
          "internalType": "address",
          "name": "to",
          "type": "address"
        },
        {
          "components": [
            {
              "internalType": "address",
              "name": "oracle",
              "type": "address"
            },
            {
              "internalType": "enum IGOAT.OracleProvider",
              "name": "providerId",
              "type": "uint8"
            }
          ],
          "internalType": "struct IGOAT.OracleId[]",
          "name": "oracles",
          "type": "tuple[]"
        }
      ],
      "name": "mintGOAT",
      "outputs": [
        {
          "internalType": "uint256[]",
          "name": "tokenIds",
          "type": "uint256[]"
        }
      ],
      "stateMutability": "payable",
      "type": "function"
    },
    {
      "inputs": [],
      "name": "name",
      "outputs": [
        {
          "internalType": "string",
          "name": "",
          "type": "string"
        }
      ],
      "stateMutability": "view",
      "type": "function"
    },
    {
      "inputs": [],
      "name": "owner",
      "outputs": [
        {
          "internalType": "address",
          "name": "",
          "type": "address"
        }
      ],
      "stateMutability": "view",
      "type": "function"
    },
    {
      "inputs": [
        {
          "internalType": "uint256",
          "name": "tokenId",
          "type": "uint256"
        }
      ],
      "name": "ownerOf",
      "outputs": [
        {
          "internalType": "address",
          "name": "",
          "type": "address"
        }
      ],
      "stateMutability": "view",
      "type": "function"
    },
    {
      "inputs": [
        {
          "internalType": "uint256",
          "name": "tokenId",
          "type": "uint256"
        }
      ],
      "name": "price",
      "outputs": [
        {
          "internalType": "uint256",
          "name": "",
          "type": "uint256"
        },
        {
          "internalType": "uint256",
          "name": "",
          "type": "uint256"
        }
      ],
      "stateMutability": "view",
      "type": "function"
    },
    {
      "inputs": [
        {
          "internalType": "enum IGOAT.OracleProvider",
          "name": "providerId",
          "type": "uint8"
        }
      ],
      "name": "providerOracles",
      "outputs": [
        {
          "internalType": "address[]",
          "name": "",
          "type": "address[]"
        }
      ],
      "stateMutability": "view",
      "type": "function"
    },
    {
      "inputs": [],
      "name": "renounceOwnership",
      "outputs": [],
      "stateMutability": "nonpayable",
      "type": "function"
    },
    {
      "inputs": [
        {
          "internalType": "address",
          "name": "from",
          "type": "address"
        },
        {
          "internalType": "address",
          "name": "to",
          "type": "address"
        },
        {
          "internalType": "uint256",
          "name": "tokenId",
          "type": "uint256"
        }
      ],
      "name": "safeTransferFrom",
      "outputs": [],
      "stateMutability": "payable",
      "type": "function"
    },
    {
      "inputs": [
        {
          "internalType": "address",
          "name": "from",
          "type": "address"
        },
        {
          "internalType": "address",
          "name": "to",
          "type": "address"
        },
        {
          "internalType": "uint256",
          "name": "tokenId",
          "type": "uint256"
        },
        {
          "internalType": "bytes",
          "name": "_data",
          "type": "bytes"
        }
      ],
      "name": "safeTransferFrom",
      "outputs": [],
      "stateMutability": "payable",
      "type": "function"
    },
    {
      "inputs": [
        {
          "internalType": "address",
          "name": "operator",
          "type": "address"
        },
        {
          "internalType": "bool",
          "name": "approved",
          "type": "bool"
        }
      ],
      "name": "setApprovalForAll",
      "outputs": [],
      "stateMutability": "nonpayable",
      "type": "function"
    },
    {
      "inputs": [
        {
          "internalType": "uint256",
          "name": "tokenId",
          "type": "uint256"
        },
        {
          "internalType": "address",
          "name": "targetContract",
          "type": "address"
        },
        {
          "internalType": "uint64",
          "name": "expires",
          "type": "uint64"
        }
      ],
      "name": "setUser",
      "outputs": [],
      "stateMutability": "nonpayable",
      "type": "function"
    },
    {
      "inputs": [
        {
          "internalType": "bytes4",
          "name": "interfaceId",
          "type": "bytes4"
        }
      ],
      "name": "supportsInterface",
      "outputs": [
        {
          "internalType": "bool",
          "name": "",
          "type": "bool"
        }
      ],
      "stateMutability": "view",
      "type": "function"
    },
    {
      "inputs": [],
      "name": "symbol",
      "outputs": [
        {
          "internalType": "string",
          "name": "",
          "type": "string"
        }
      ],
      "stateMutability": "view",
      "type": "function"
    },
    {
      "inputs": [
        {
          "internalType": "uint256",
          "name": "",
          "type": "uint256"
        }
      ],
      "name": "tokenIdToOracle",
      "outputs": [
        {
          "internalType": "address",
          "name": "oracle",
          "type": "address"
        },
        {
          "internalType": "enum IGOAT.OracleProvider",
          "name": "providerId",
          "type": "uint8"
        }
      ],
      "stateMutability": "view",
      "type": "function"
    },
    {
      "inputs": [
        {
          "internalType": "uint256",
          "name": "tokenId",
          "type": "uint256"
        }
      ],
      "name": "tokenURI",
      "outputs": [
        {
          "internalType": "string",
          "name": "",
          "type": "string"
        }
      ],
      "stateMutability": "view",
      "type": "function"
    },
    {
      "inputs": [],
      "name": "totalSupply",
      "outputs": [
        {
          "internalType": "uint256",
          "name": "",
          "type": "uint256"
        }
      ],
      "stateMutability": "view",
      "type": "function"
    },
    {
      "inputs": [
        {
          "internalType": "address",
          "name": "from",
          "type": "address"
        },
        {
          "internalType": "address",
          "name": "to",
          "type": "address"
        },
        {
          "internalType": "uint256",
          "name": "tokenId",
          "type": "uint256"
        }
      ],
      "name": "transferFrom",
      "outputs": [],
      "stateMutability": "payable",
      "type": "function"
    },
    {
      "inputs": [
        {
          "internalType": "address",
          "name": "newOwner",
          "type": "address"
        }
      ],
      "name": "transferOwnership",
      "outputs": [],
      "stateMutability": "nonpayable",
      "type": "function"
    },
    {
      "inputs": [
        {
          "internalType": "uint256",
          "name": "tokenId",
          "type": "uint256"
        }
      ],
      "name": "userExpires",
      "outputs": [
        {
          "internalType": "uint256",
          "name": "",
          "type": "uint256"
        }
      ],
      "stateMutability": "view",
      "type": "function"
    },
    {
      "inputs": [
        {
          "internalType": "uint256",
          "name": "tokenId",
          "type": "uint256"
        }
      ],
      "name": "userOf",
      "outputs": [
        {
          "internalType": "address",
          "name": "",
          "type": "address"
        }
      ],
      "stateMutability": "view",
      "type": "function"
    },
    {
      "inputs": [],
      "name": "withdraw",
      "outputs": [],
      "stateMutability": "nonpayable",
      "type": "function"
    }
  ],
  "bytecode": "0x60a06040523480156200001157600080fd5b506040518060600160405280602b8152602001620026ae602b913960408051808201909152600481526311d3d05560e21b60208201526002620000558382620001ad565b506003620000648282620001ad565b505060008055506200007633620000b6565b600060808190526040519081527fde70169013c7f0a382d7e3ff2ddfbb11f5a3909de756fd81c1a6b758c141654a9060200160405180910390a162000279565b600980546001600160a01b038381166001600160a01b0319831681179093556040519116919082907f8be0079c531659141344cd1fd0a4f28419497f9722a3daafe3b4186f6b6457e090600090a35050565b634e487b7160e01b600052604160045260246000fd5b600181811c908216806200013357607f821691505b6020821081036200015457634e487b7160e01b600052602260045260246000fd5b50919050565b601f821115620001a857600081815260208120601f850160051c81016020861015620001835750805b601f850160051c820191505b81811015620001a4578281556001016200018f565b5050505b505050565b81516001600160401b03811115620001c957620001c962000108565b620001e181620001da84546200011e565b846200015a565b602080601f831160018114620002195760008415620002005750858301515b600019600386901b1c1916600185901b178555620001a4565b600085815260208120601f198616915b828110156200024a5788860151825594840194600190910190840162000229565b5085821015620002695787850151600019600388901b60f8161c191681555b5050505050600190811b01905550565b60805161241962000295600039600061056001526124196000f3fe6080604052600436106101cd5760003560e01c8063833b9499116100f7578063b88d4fde11610095578063e030565e11610064578063e030565e14610582578063e1504dd0146105a2578063e985e9c5146105cf578063f2fde38b146105ef57600080fd5b8063b88d4fde146104e7578063c2f1f14a146104fa578063c87b56dd1461052e578063df3b9b491461054e57600080fd5b806395d89b41116100d157806395d89b4114610453578063a22cb46514610468578063b19d66da14610488578063b45a3c0e146104a857600080fd5b8063833b9499146103ea5780638da5cb5b146104055780638fc88c481461042357600080fd5b806326a49e371161016f57806342842e0e1161013e57806342842e0e146103825780636352211e1461039557806370a08231146103b5578063715018a6146103d557600080fd5b806326a49e37146102cc578063313ce56714610301578063320ba49d1461031d5780633ccfd60b1461036d57600080fd5b8063095ea7b3116101ab578063095ea7b3146102615780630f2b52871461027657806318160ddd1461029657806323b872dd146102b957600080fd5b806301ffc9a7146101d257806306fdde0314610207578063081812fc14610229575b600080fd5b3480156101de57600080fd5b506101f26101ed366004611ab4565b61060f565b60405190151581526020015b60405180910390f35b34801561021357600080fd5b5061021c61063b565b6040516101fe9190611b21565b34801561023557600080fd5b50610249610244366004611b34565b6106cd565b6040516001600160a01b0390911681526020016101fe565b61027461026f366004611b69565b610711565b005b34801561028257600080fd5b50610274610291366004611ba2565b6107b1565b3480156102a257600080fd5b50600154600054035b6040519081526020016101fe565b6102746102c7366004611c28565b610895565b3480156102d857600080fd5b506102ec6102e7366004611b34565b610a3a565b604080519283526020830191909152016101fe565b34801561030d57600080fd5b50604051601281526020016101fe565b34801561032957600080fd5b5061035f610338366004611b34565b600b602052600090815260409020546001600160a01b03811690600160a01b900460ff1682565b6040516101fe929190611c9c565b34801561037957600080fd5b50610274610d42565b610274610390366004611c28565b610d79565b3480156103a157600080fd5b506102496103b0366004611b34565b610d99565b3480156103c157600080fd5b506102ab6103d0366004611cb9565b610da4565b3480156103e157600080fd5b50610274610df3565b3480156103f657600080fd5b506102ab662386f26fc1000081565b34801561041157600080fd5b506009546001600160a01b0316610249565b34801561042f57600080fd5b506102ab61043e366004611b34565b60009081526008602052604090205460a01c90565b34801561045f57600080fd5b5061021c610e07565b34801561047457600080fd5b50610274610483366004611cd4565b610e16565b61049b610496366004611d10565b610e82565b6040516101fe9190611dbe565b3480156104b457600080fd5b506101f26104c3366004611b34565b6000908152600860205260409020544260a01b8111026001600160a01b0316151590565b6102746104f5366004611e18565b6110c1565b34801561050657600080fd5b50610249610515366004611b34565b6000908152600860205260409020544260a01b81110290565b34801561053a57600080fd5b5061021c610549366004611b34565b61110b565b34801561055a57600080fd5b506101f27f000000000000000000000000000000000000000000000000000000000000000081565b34801561058e57600080fd5b5061027461059d366004611ed8565b61119c565b3480156105ae57600080fd5b506105c26105bd366004611f25565b6111ce565b6040516101fe9190611f40565b3480156105db57600080fd5b506101f26105ea366004611f8d565b61120d565b3480156105fb57600080fd5b5061027461060a366004611cb9565b61123b565b600061061a826112b1565b806106355750632b424ad760e21b6001600160e01b03198316145b92915050565b60606002805461064a90611fc0565b80601f016020809104026020016040519081016040528092919081815260200182805461067690611fc0565b80156106c35780601f10610698576101008083540402835291602001916106c3565b820191906000526020600020905b8154815290600101906020018083116106a657829003601f168201915b5050505050905090565b60006106d8826112ff565b6106f5576040516333d1c03960e21b815260040160405180910390fd5b506000908152600660205260409020546001600160a01b031690565b600061071c82610d99565b9050336001600160a01b0382161461075557610738813361120d565b610755576040516367d9dca160e11b815260040160405180910390fd5b60008281526006602052604080822080546001600160a01b0319166001600160a01b0387811691821790925591518593918516917f8c5be1e5ebec7d5bd14f71427d1e84f3dd0314c0f7b2291e5b200ac8c7c3b92591a4505050565b6107b9611326565b60005b81811015610844576108318383838181106107d9576107d9611ffa565b90506020020160208101906107ee9190611cb9565b600a600087600181111561080457610804611c64565b600181111561081557610815611c64565b815260200190815260200160002061138090919063ffffffff16565b508061083c81612026565b9150506107bc565b5082600181111561085757610857611c64565b7f3c7bd7def76865ce6d7c536b4ccb3a3fe4dd1e5eebe2c4064b9fa51cf78ea537838360405161088892919061203f565b60405180910390a2505050565b60006108a082611395565b9050836001600160a01b0316816001600160a01b0316146108d35760405162a1148160e81b815260040160405180910390fd5b60008281526006602052604090208054338082146001600160a01b0388169091141761092057610903863361120d565b61092057604051632ce44b5f60e11b815260040160405180910390fd5b6001600160a01b03851661094757604051633a954ecd60e21b815260040160405180910390fd5b61095486868660016113fc565b801561095f57600082555b6001600160a01b038681166000908152600560205260408082208054600019019055918716808252919020805460010190554260a01b17600160e11b17600085815260046020526040812091909155600160e11b841690036109f1576001840160008181526004602052604081205490036109ef5760005481146109ef5760008181526004602052604090208490555b505b83856001600160a01b0316876001600160a01b03167fddf252ad1be2c89b69c2b068fc378daa952ba7f163c4a11628f55a4df523b3ef60405160405180910390a4505050505050565b600081815260086020526040812054819033904260a01b8111026001600160a01b031614610aa45760405162461bcd60e51b815260206004820152601260248201527121b0b63632b91034b9903737ba103ab9b2b960711b60448201526064015b60405180910390fd5b6000838152600b60209081526040808320815180830190925280546001600160a01b03811683529192909190830190600160a01b900460ff166001811115610aee57610aee611c64565b6001811115610aff57610aff611c64565b9052509050600081602001516001811115610b1c57610b1c611c64565b03610b905780600001516001600160a01b031663393e5ede6040518163ffffffff1660e01b81526004016040805180830381865afa158015610b62573d6000803e3d6000fd5b505050506040513d601f19601f82011682018060405250810190610b86919061208b565b9250925050915091565b600181602001516001811115610ba857610ba8611c64565b03610cfa5760008082600001516001600160a01b031663feaf968c6040518163ffffffff1660e01b815260040160a060405180830381865afa158015610bf2573d6000803e3d6000fd5b505050506040513d601f19601f82011682018060405250810190610c1691906120c9565b509350509250506000821215610c605760405162461bcd60e51b815260206004820152600f60248201526e2732b3b0ba34bb329030b739bbb2b960891b6044820152606401610a9b565b600083600001516001600160a01b031663313ce5676040518163ffffffff1660e01b8152600401602060405180830381865afa158015610ca4573d6000803e3d6000fd5b505050506040513d601f19601f82011682018060405250810190610cc89190612119565b90506000610cd782601261213c565b610ce290600a612239565b610cec9085612248565b989297509195505050505050565b60405162461bcd60e51b815260206004820152601760248201527f496e76616c6964206f7261636c652070726f76696465720000000000000000006044820152606401610a9b565b610d4a611326565b60405133904780156108fc02916000818181858888f19350505050158015610d76573d6000803e3d6000fd5b50565b610d94838383604051806020016040528060008152506110c1565b505050565b600061063582611395565b60006001600160a01b038216610dcd576040516323d3ad8160e21b815260040160405180910390fd5b506001600160a01b031660009081526005602052604090205467ffffffffffffffff1690565b610dfb611326565b610e056000611486565b565b60606003805461064a90611fc0565b3360008181526007602090815260408083206001600160a01b03871680855290835292819020805460ff191686151590811790915590519081529192917f17307eab39ab6107e8899845ad3d59bd9653f200f220920489ca2b5937696c31910160405180910390a35050565b606081610e96662386f26fc1000082612248565b341015610eda5760405162461bcd60e51b8152602060048201526012602482015271496e73756666696369656e742046756e647360701b6044820152606401610a9b565b600054610ee786836114d8565b8167ffffffffffffffff811115610f0057610f00611dd1565b604051908082528060200260200182016040528015610f29578160200160208202803683370190505b50925060005b82811015611011576000610f43828461225f565b90506000878784818110610f5957610f59611ffa565b905060400201803603810190610f6f9190612272565b9050610f7a816114f6565b81868481518110610f8d57610f8d611ffa565b6020908102919091018101919091526000838152600b825260409020825181546001600160a01b031981166001600160a01b039092169182178355928401518493909183916001600160a81b03191617600160a01b836001811115610ff457610ff4611c64565b02179055509050505050808061100990612026565b915050610f2f565b50856001600160a01b03167f113fb23133149f38501fc3cbe26591b3a17ae4cc9d340148d9b72bdb0cc85b8c84878760405161104f939291906122cd565b60405180910390a2611068662386f26fc1000083612248565b3411156110b857336108fc611084662386f26fc1000085612248565b61108e9034612347565b6040518115909202916000818181858888f193505050501580156110b6573d6000803e3d6000fd5b505b50509392505050565b6110cc848484610895565b6001600160a01b0383163b15611105576110e884848484611589565b611105576040516368d2bf6b60e11b815260040160405180910390fd5b50505050565b6060611116826112ff565b61113357604051630a14c4b560e41b815260040160405180910390fd5b600061114a60408051602081019091526000815290565b9050805160000361116a5760405180602001604052806000815250611195565b8061117484611674565b60405160200161118592919061235a565b6040516020818303038152906040525b9392505050565b6001600160a01b038216156111ba576111b583836116b8565b6111c3565b6111c383611749565b610d94838383611782565b6060610635600a60008460018111156111e9576111e9611c64565b60018111156111fa576111fa611c64565b8152602001908152602001600020611853565b6001600160a01b03918216600090815260076020908152604080832093909416825291909152205460ff1690565b611243611326565b6001600160a01b0381166112a85760405162461bcd60e51b815260206004820152602660248201527f4f776e61626c653a206e6577206f776e657220697320746865207a65726f206160448201526564647265737360d01b6064820152608401610a9b565b610d7681611486565b60006301ffc9a760e01b6001600160e01b0319831614806112e257506380ac58cd60e01b6001600160e01b03198316145b806106355750506001600160e01b031916635b5e139f60e01b1490565b6000805482108015610635575050600090815260046020526040902054600160e01b161590565b6009546001600160a01b03163314610e055760405162461bcd60e51b815260206004820181905260248201527f4f776e61626c653a2063616c6c6572206973206e6f7420746865206f776e65726044820152606401610a9b565b6000611195836001600160a01b038416611860565b6000816000548110156113e35760008181526004602052604081205490600160e01b821690036113e1575b806000036111955750600019016000818152600460205260409020546113c0565b505b604051636f96cda160e11b815260040160405180910390fd5b815b611408828461225f565b81101561147f576000818152600860205260409020544260a01b8111026001600160a01b03161561146d5760405162461bcd60e51b815260206004820152600f60248201526e151bdad95b881a5cc81b1bd8dad959608a1b6044820152606401610a9b565b8061147781612026565b9150506113fe565b5050505050565b600980546001600160a01b038381166001600160a01b0319831681179093556040519116919082907f8be0079c531659141344cd1fd0a4f28419497f9722a3daafe3b4186f6b6457e090600090a35050565b6114f28282604051806020016040528060008152506118af565b5050565b6115458160000151600a60008460200151600181111561151857611518611c64565b600181111561152957611529611c64565b815260200190815260200160002061191590919063ffffffff16565b610d765760405162461bcd60e51b815260206004820152601560248201527413dc9858db19481b9bdd081c9959da5cdd195c9959605a1b6044820152606401610a9b565b604051630a85bd0160e11b81526000906001600160a01b0385169063150b7a02906115be903390899088908890600401612389565b6020604051808303816000875af19250505080156115f9575060408051601f3d908101601f191682019092526115f6918101906123c6565b60015b611657573d808015611627576040519150601f19603f3d011682016040523d82523d6000602084013e61162c565b606091505b50805160000361164f576040516368d2bf6b60e11b815260040160405180910390fd5b805181602001fd5b6001600160e01b031916630a85bd0160e11b149050949350505050565b606060a06040510180604052602081039150506000815280825b600183039250600a81066030018353600a90048061168e5750819003601f19909101908152919050565b6001600160a01b0381163b61170f5760405162461bcd60e51b815260206004820152601760248201527f55736572206d757374206265206120636f6e74726163740000000000000000006044820152606401610a9b565b6040516001815282907f8ed24f7d0c11ab2eef7f3d98a2a8f258a2469819af7e11fe564938715d01e2e59060200160405180910390a25050565b6040516000815281907f8ed24f7d0c11ab2eef7f3d98a2a8f258a2469819af7e11fe564938715d01e2e59060200160405180910390a250565b600061178d84610d99565b9050336001600160a01b038216146117de576117a9813361120d565b6117de57336117b7856106cd565b6001600160a01b0316146117de576040516309e3bb1d60e31b815260040160405180910390fd5b6000848152600860209081526040918290206001600160a01b03861660a086901b67ffffffffffffffff60a01b168117909155915167ffffffffffffffff8516815286917f4e06b4e7000e659094299b3533b47b6aa8ad048e95e872d23d1f4ee55af89cfe910160405180910390a350505050565b6060600061119583611937565b60008181526001830160205260408120546118a757508154600181810184556000848152602080822090930184905584548482528286019093526040902091909155610635565b506000610635565b6118b98383611993565b6001600160a01b0383163b15610d94576000548281035b6118e36000868380600101945086611589565b611900576040516368d2bf6b60e11b815260040160405180910390fd5b8181106118d057816000541461147f57600080fd5b6001600160a01b03811660009081526001830160205260408120541515611195565b60608160000180548060200260200160405190810160405280929190818152602001828054801561198757602002820191906000526020600020905b815481526020019060010190808311611973575b50505050509050919050565b60008054908290036119b85760405163b562e8dd60e01b815260040160405180910390fd5b6119c560008483856113fc565b6001600160a01b03831660008181526005602090815260408083208054680100000000000000018802019055848352600490915281206001851460e11b4260a01b178317905582840190839083907fddf252ad1be2c89b69c2b068fc378daa952ba7f163c4a11628f55a4df523b3ef8180a4600183015b818114611a7457808360007fddf252ad1be2c89b69c2b068fc378daa952ba7f163c4a11628f55a4df523b3ef600080a4600101611a3c565b5081600003611a9557604051622e076360e81b815260040160405180910390fd5b60005550505050565b6001600160e01b031981168114610d7657600080fd5b600060208284031215611ac657600080fd5b813561119581611a9e565b60005b83811015611aec578181015183820152602001611ad4565b50506000910152565b60008151808452611b0d816020860160208601611ad1565b601f01601f19169290920160200192915050565b6020815260006111956020830184611af5565b600060208284031215611b4657600080fd5b5035919050565b80356001600160a01b0381168114611b6457600080fd5b919050565b60008060408385031215611b7c57600080fd5b611b8583611b4d565b946020939093013593505050565b803560028110611b6457600080fd5b600080600060408486031215611bb757600080fd5b611bc084611b93565b9250602084013567ffffffffffffffff80821115611bdd57600080fd5b818601915086601f830112611bf157600080fd5b813581811115611c0057600080fd5b8760208260051b8501011115611c1557600080fd5b6020830194508093505050509250925092565b600080600060608486031215611c3d57600080fd5b611c4684611b4d565b9250611c5460208501611b4d565b9150604084013590509250925092565b634e487b7160e01b600052602160045260246000fd5b60028110611c9857634e487b7160e01b600052602160045260246000fd5b9052565b6001600160a01b0383168152604081016111956020830184611c7a565b600060208284031215611ccb57600080fd5b61119582611b4d565b60008060408385031215611ce757600080fd5b611cf083611b4d565b915060208301358015158114611d0557600080fd5b809150509250929050565b600080600060408486031215611d2557600080fd5b611d2e84611b4d565b9250602084013567ffffffffffffffff80821115611d4b57600080fd5b818601915086601f830112611d5f57600080fd5b813581811115611d6e57600080fd5b8760208260061b8501011115611c1557600080fd5b600081518084526020808501945080840160005b83811015611db357815187529582019590820190600101611d97565b509495945050505050565b6020815260006111956020830184611d83565b634e487b7160e01b600052604160045260246000fd5b604051601f8201601f1916810167ffffffffffffffff81118282101715611e1057611e10611dd1565b604052919050565b60008060008060808587031215611e2e57600080fd5b611e3785611b4d565b93506020611e46818701611b4d565b935060408601359250606086013567ffffffffffffffff80821115611e6a57600080fd5b818801915088601f830112611e7e57600080fd5b813581811115611e9057611e90611dd1565b611ea2601f8201601f19168501611de7565b91508082528984828501011115611eb857600080fd5b808484018584013760008482840101525080935050505092959194509250565b600080600060608486031215611eed57600080fd5b83359250611efd60208501611b4d565b9150604084013567ffffffffffffffff81168114611f1a57600080fd5b809150509250925092565b600060208284031215611f3757600080fd5b61119582611b93565b6020808252825182820181905260009190848201906040850190845b81811015611f815783516001600160a01b031683529284019291840191600101611f5c565b50909695505050505050565b60008060408385031215611fa057600080fd5b611fa983611b4d565b9150611fb760208401611b4d565b90509250929050565b600181811c90821680611fd457607f821691505b602082108103611ff457634e487b7160e01b600052602260045260246000fd5b50919050565b634e487b7160e01b600052603260045260246000fd5b634e487b7160e01b600052601160045260246000fd5b60006001820161203857612038612010565b5060010190565b60208082528181018390526000908460408401835b86811015612080576001600160a01b0361206d84611b4d565b1682529183019190830190600101612054565b509695505050505050565b6000806040838503121561209e57600080fd5b505080516020909101519092909150565b805169ffffffffffffffffffff81168114611b6457600080fd5b600080600080600060a086880312156120e157600080fd5b6120ea866120af565b945060208601519350604086015192506060860151915061210d608087016120af565b90509295509295909350565b60006020828403121561212b57600080fd5b815160ff8116811461119557600080fd5b60ff828116828216039081111561063557610635612010565b600181815b8085111561219057816000190482111561217657612176612010565b8085161561218357918102915b93841c939080029061215a565b509250929050565b6000826121a757506001610635565b816121b457506000610635565b81600181146121ca57600281146121d4576121f0565b6001915050610635565b60ff8411156121e5576121e5612010565b50506001821b610635565b5060208310610133831016604e8410600b8410161715612213575081810a610635565b61221d8383612155565b806000190482111561223157612231612010565b029392505050565b600061119560ff841683612198565b808202811582820484141761063557610635612010565b8082018082111561063557610635612010565b60006040828403121561228457600080fd5b6040516040810181811067ffffffffffffffff821117156122a7576122a7611dd1565b6040526122b383611b4d565b81526122c160208401611b93565b60208201529392505050565b600060408083526122e081840187611d83565b8381036020858101919091528582528691810160005b8781101561233a576001600160a01b0361230f85611b4d565b16825261231d838501611b93565b61232984840182611c7a565b5092840192908401906001016122f6565b5098975050505050505050565b8181038181111561063557610635612010565b6000835161236c818460208801611ad1565b835190830190612380818360208801611ad1565b01949350505050565b6001600160a01b03858116825284166020820152604081018390526080606082018190526000906123bc90830184611af5565b9695505050505050565b6000602082840312156123d857600080fd5b815161119581611a9e56fea264697066735822122072ec3ca6d826d4d61f8558e2120888b0882a28142634c41f516a944f1b49065964736f6c6343000811003347726f756e64627265616b696e67204f7261636c652041676772656761746f7220546563686e6f6c6f6779",
  "linkReferences": {},
  "deployedLinkReferences": {}
}